:020000040000FA
:060000000A128A11DB2F39
:100B5800013400340034003464008001840A04063F
:100B6800031900340406B12D0A128A11C5250A1288
:100B78008A110A128A112C260A128A110A128A115B
:100B880000288312031385018316031305148316A3
:100B980003178801831203138601831603130608BB
:100BA800831603178901080083120313051CDD2D22
:100BB800DE2DE12DF001F101FB2D851CE42DE52D45
:100BC800EA2D0130F0000030F100FB2D051DED2D60
:100BD800EE2DF32D0230F0000030F100FB2D851DC5
:100BE800F62DF72DD82D0330F0000030F100080065
:100BF80083120313DC01DD010A128A11AE260A12E0
:100C08008A110330831203135205D90000305305AB
:100C1800DA005C08DB005B07383E84005908831360
:100C28008000840A5A0880000130DC070318DD0AB6
:100C38000030DD075D08803AFF0080307F02031D29
:100C4800272E0D305C02031C2A2E2B2E002E0800A6
:100C58004E2E01308600063083120313E000133055
:100C6800DF00AD30DE00DE0B372EDF0B372EE00B5A
:100C7800372E831203138601063083120313E00014
:100C88001330DF00AD30DE00DE0B482EDF0B482EC0
:100C9800E00B482E83120313051E532E542E2D2EBF
:100CA8005F2E0A128A11FC250A128A110A128A1169
:100CB800F5260A128A1183120313500851040319E6
:100CC800662E672E552E08000030FC000030FB0011
:100CD8000030FA000030F900701C732E742E8B2E31
:100CE8007408F907750803110318013E03197D2ECE
:100CF800FA07760803110318013E0319842EFB072F
:100D0800770803110318013E03198B2EFC070130E5
:100D1800F8000310F40DF50DF60DF70DF80B8D2EF8
:100D280001300310F30CF20CF10CF00CFF3E031D24
:100D3800952E7308720471047004031DA42EA52E49
:100D4800702E7C08F3007B08F2007A08F10079081D
:100D5800F0000800831203136408F3006308F2002C
:100D68006208F1006108F0004130F700C630F60073
:100D78004E30F5006D30F4000A128A1168260A1206
:100D88008A11730883120313E4007208E3007108E0
:100D9800E2007008E1003930E107303003183130E3
:100DA800E207003003180130E30700300318013070
:100DB800E4076108D4006208D5006308D600640817
:100DC800D7001030D800570DD70CD60CD50CD40C42
:100DD800D80BE72EFF305405D2007F305505D300DD
:100DE800080083120313D201D301472F8312031380
:100DF8005308F1005208F0000A128A1155270A1206
:100E08008A110A128A11D8250A128A118312031329
:100E18005208F7007707203E84007008831380008B
:100E2800840A710880005208F7007707203E840082
:100E38000008F800840A0008F9005208FA007A0746
:100E4800383E84000008FB00840A0008FC0079088A
:100E58007C06031D312F78087B06031D342F352FA0
:100E68003B2F0130D2070318D30A0030D3070C30C8
:100E780052065304031D412F422F472F0130D00043
:100E88000030D100542F5308803AFF0080307F0291
:100E9800031D502F0D305202031C532F542FFA2ECE
:100EA8000800F501F601CC2F831203130614023053
:100EB800F4000430F300BA30F200F20B612FF30BA8
:100EC800612FF40B612F0000831203130610C62F45
:100ED8008312031386140230F4000430F300BA308E
:100EE800F200F20B752FF30B752FF40B752F000022
:100EF800831203138610C62F8312031306150230BC
:100F0800F4000430F300BA30F200F20B892FF30B2F
:100F1800892FF40B892F0000831203130611C62FA3
:100F28008312031386150230F4000430F300BA303C
:100F3800F200F20B9D2FF30B9D2FF40B9D2F000059
:100F4800831203138611C62F7508F2007207383E04
:100F5800840083130008F300840A0008F40074086E
:100F6800003A0319B82FC62F7308003A0319582FEF
:100F7800013A03196C2F033A0319802F013A031918
:100F8800942FC62F0130F5070318F60A0030F6072C
:100F98007108803AF2007608803A7202031DD62F53
:100FA800750870020318D92FDA2FA82F08000A1223
:100FB8008A11AC250A128A11E1000A128A11AD259C
:100FC8000A128A11E2000A128A11AE250A128A113F
:100FD800E3000A128A11AF250A128A11E40083136A
:100FE8002030840052300A128A11B0250A128A1160
:080FF80083010A128A11B82DD1
:04400E00F43FFF3F3D
:00000001FF
