:020000040000FA
:060000000A128A110C280F
:10000800FE00030EF1000A08F2000A128A111328F2
:100018000A128A110F2883010A128A1135280B1D2A
:100028001628172820289B308312031381000130DB
:10003800F000700885060B1172088A00710E8300A3
:10004800FE0E7E0E09008316031381128115051416
:100058008316031788018312031385010B118B166E
:1000680008000A128A1127200A128A110A128A1114
:1000780042200A128A110A128A110C284228080002
:04400E00F43FFF3F3D
:00000001FF
