:020000040000FA
:060000000A128A110C280F
:10000800FE00030EF1000A08F2000A128A111328F2
:100018000A128A110F2883010A128A113A280B1D25
:100028001628172820281430831203138100013062
:10003800F000700885060B1172088A00710E8300A3
:10004800FE0E7E0E090083160313811281110730FC
:100058008104051083160317880183120313850191
:100068000B11143081008B168B1708000A128A11A5
:1000780027200A128A110A128A1147200A128A11A5
:0A0088000A128A110C28472808000C
:04400E00F43FFF3F3D
:00000001FF
